:080000001406040000000000DA
:100400003220EF00C3202000008041001040BA00DD
:100410000160EF00000006005265000073650000F7
:1004200074200000636F00006D6D0000616E0000BD
:1004300064200000736500006E740000202100003D
:100440000D0A0000000000003220EF00032320000E
:10045000008041001040BA000160EF00000006007B
:100460005468000065200000766100006C75000093
:10047000652000006F660000204900002069000030
:1004800073200000256400000D0A00000000000039
:100490003220EF0043252000008041001040BA00C8
:1004A0000160EF00000006004D4D000043200000F9
:1004B00072650000737000006F6E000064650000DC
:1004C000642000007468000061740000206900006E
:1004D000742000006973000020490000444C0000B3
:1004E00045200000210000003220EF0003282000FA
:1004F000008041001040BA000160EF0000000600DB
:1005000053500000495F0000524500004144000084
:10051000322000007265000074750000726E0000E9
:100520006564000020250000640D00000A00000042
:100530003220EF00432A2000008041001040BA0022
:100540000160EF0000000600535500004343000027
:100550004553000053200000210000003220EF002E
:10056000A32B2000008041001040BA000160EF0082
:100570000000060046410000494C000055520000B2
:10058000450000003220EF00E32C200000804100F5
:100590001040BA000160EF0000000600464F000066
:1005A000554E00004420000049540000206900001E
:1005B0006E20000025640000206D00006F760000B2
:1005C000657300000D0A0000000000003220EF00FB
:1005D000232F2000008041001040BA000160EF008E
:1005E00000000600546800006520000076610000ED
:1005F0006C750000652000006F6600002049000057
:10060000206900007320000025640000200D000018
:100610000A000000851F7800C500200003000900C3
:10062000B51F780000F0A6000C0037000000EA00BB
:100630000480A00004F0A60008003700801F7800A6
:10064000D00220002322AF00FEFF370020118800D7
:100650004F0078000480A1000860ED008002EB00EC
:10066000800378008404780004F0A1000404E00012
:1006700006003A0009F0A70002003700050020003C
:100680000F003700050020000D003700E642520041
:100690000A0039000003200009F0A6000002200033
:1006A0002322AF00FEFF3700201188008502E900F9
:1006B000FBFF3B005500200001003700840278005A
:1006C000640020000580A7000402E80005E0A00007
:1006D00009F0A70005F0A000087122001100090030
:1006E0008883D800B6030200000000008103780070
:1006F000883E2000110009008883D800B60302005C
:100700000000000081037800480620001100090065
:100710008883D800B603020000000000810378003F
:10072000A8002000110009008883D800B603020049
:10073000000000000980A60005003700D00220005C
:100740002322AF00FEFF3700201188000980A1009E
:100750000003200000C04000500188002322AF00A9
:10076000FEFF37002011880022003700060320001A
:100770000000E0000E003A0005E0A6001600370079
:100780000402E9000524E100020032004200AF004B
:10079000000006000000E00005003A0005E0A600A9
:1007A0000D00370005F0A600060220000A00370001
:1007B00005E0A1000980A6000700370000057800C9
:1007C000D00220002322AF00FEFF37002011880056
:1007D0000980A1000A00780000404300811F7800D2
:1007E0002322AF00FEFF370020118800CF007800E1
:1007F000000006002501200003000900CF12780048
:10080000CF02780000000600851F78001A2AEF004A
:1008100060C2A900B40320001413880061E2A8009C
:10082000E522A900E922A800182AEF00C4508000A0
:10083000030520000418E1000B00340060C2A90089
:100840006002AE000200370068C2BF00FCFF370044
:1008500068E2EF006002AE00FEFF3700182AEC00ED
:1008600016040400000000000500200005007800C8
:1008700000020200000000000040B3004220AF0070
:10088000060037008502E8002322AF00FEFF370094
:1008900024E2B7002562EF00F4FF37002322AF0007
:1008A000FEFF3700D4002000241188002322AF006F
:1008B000FEFF3700A400200024118800E522A900D3
:1008C000E922A90060C2A9006002AE000200370060
:1008D00068C2BF00FCFF370000C4B30068E2B70085
:1008E0006002AE00FEFF370060C2A9006002AE00E9
:1008F0000200370068C2BF00FCFF37006862EF00EB
:100900006002AE00FEFF370060C2A9006002AE00C8
:100910000200370068C2BF00FCFF37006862EF00CA
:100920006002AE00FEFF370060C2A9006002AE00A8
:100930000200370068C2BF00FCFF37006862EF00AA
:100940006002AE00FEFF370060C2A9006002AE0088
:100950000200370068C2BF00FCFF37006862EF008A
:100960006002AE00FEFF370060C2A9006002AE0068
:100970000200370068C2BF00FCFF370050C9B30057
:1009800068E2B7006002AE00FEFF370060C2A90057
:100990006002AE000200370068C2BF00FCFF3700F3
:1009A00068E2EF006002AE00FEFF370060C2A900FF
:1009B0006002AE000200370068C2BF00FCFF3700D3
:1009C00068E2EF006002AE00FEFF37006002AE009A
:1009D000FEFF370068C2BF000160EF00C050880012
:1009E0000100200001007800240202000000000045
:1009F0008100E800811F78002322AF00FEFF37004E
:100A000020118800CF007800100120000008E600C7
:100A1000F4FF3700C0508000040020000A030200E9
:100A2000000000002322AF00FEFF3700D4002000AA
:100A3000241188002322AF00FEFF3700A40020000D
:100A400024118800C45080006120E10017003A00A2
:100A500005002000050078004802020000000000A8
:100A60000040B3004220AF00060037008502E800D6
:100A70002322AF00FEFF370024E2B7002562EF001B
:100A8000F4FF37002322AF00FEFF3700D400200020
:100A9000241188002322AF00FEFF3700A4002000AD
:100AA00024118800880504000000000001002000D7
:100AB0000100780074020200000000008100E800DC
:100AC000811F78002322AF00FEFF3700201188002D
:100AD000CF007800200120000008E600F4FF370076
:100AE000C0508000040020000A0302000000000043
:100AF0002322AF00FEFF3700D4002000241188001D
:100B00002322AF00FEFF3700A4002000241188003C
:100B100060C2A9006002AE000200370068C2BF00D8
:100B2000FCFF370010C4B30068E2B7006002AE00FB
:100B3000FEFF370060C2A9006002AE00020037006D
:100B400068C2BF00FCFF37006862EF006002AE00C1
:100B5000FEFF370060C2A9006002AE00020037004D
:100B600068C2BF00FCFF37006862EF006002AE00A1
:100B7000FEFF370060C2A9006002AE00020037002D
:100B800068C2BF00FCFF37006862EF006002AE0081
:100B9000FEFF370060C2A9006002AE00020037000D
:100BA00068C2BF00FCFF37006862EF006002AE0061
:100BB000FEFF370060C2A9006002AE0002003700ED
:100BC00068C2BF00FCFF37006862EF006002AE0041
:100BD000FEFF370060C2A9006002AE0002003700CD
:100BE00068C2BF00FCFF370068E2EF006002AE00A1
:100BF000FEFF370060C2A9006002AE0002003700AD
:100C000068C2BF00FCFF370068E2EF006002AE0080
:100C1000FEFF370068C2BF000160EF0000A0B70010
:100C2000CF0278000000060081E0A8004427EF0012
:100C30000028EF0004002800041188000440200070
:100C400014118800C400200044118800E4E2A800C8
:100C5000E502A900E4C2A900E8C2A9002CA3EF00A4
:100C60000F782200F07F220020A0B70000000000D3
:100C70000228EF000F782200F07F220020A0B700AA
:100C800000000000142AEF00162AEF00CE0709002A
:100C90000000000004040200000000008002780050
:100CA0000500E00017003A0005002000050078006C
:100CB00098020200000000000040B3004220AF0094
:100CC000060037008502E8002322AF00FEFF370050
:100CD00024E2B7002562EF00F4FF37002322AF00C3
:100CE000FEFF3700D4002000241188002322AF002B
:100CF000FEFF3700A400200024118800AC06040089
:100D0000000000000500200005007800AE0202008F
:100D1000000000000040B3004220AF000600370092
:100D20008502E8002322AF00FEFF370024E2B7006F
:100D30002562EF00F4FF37002322AF00FEFF3700EB
:100D4000D4002000241188002322AF00FEFF3700CA
:100D5000A40020002411880060C2A9006002AE0037
:100D60000200370068C2BF00FCFF370010C5B300A7
:100D700068E2B7006002AE00FEFF370060C2A90063
:100D80006002AE000200370068C2BF00FCFF3700FF
:100D90006862EF006002AE00FEFF370060C2A9008B
:100DA0006002AE000200370068C2BF00FCFF3700DF
:100DB00020C0B30068E2B7006002AE00FEFF37005B
:100DC00060C2A9006002AE000200370068C2BF0026
:100DD000FCFF370060C4B30068E2B7006002AE00F9
:100DE000FEFF370060C2A9006002AE0002003700BB
:100DF00068C2BF00FCFF370020C7B30068E2B7003D
:100E00006002AE00FEFF370060C2A9006002AE00C3
:100E10000200370068C2BF00FCFF37006862EF00C5
:100E20006002AE00FEFF370060C2A9006002AE00A3
:100E30000200370068C2BF00FCFF370068E2EF0025
:100E40006002AE00FEFF3700162AEF00B4508000AB
:100E5000032020000418E1003000340060C2A90023
:100E60006002AE000200370068C2BF00FCFF37001E
:100E700068E2EF006002AE00FEFF3700441380001E
:100E8000E4CFB20020003A00010020000100780009
:100E9000C2020200000000008100E800811F78000B
:100EA0002322AF00FEFF370020118800CF0078001A
:100EB000B00020000008E600F4FF3700A0508000DA
:100EC000040020000A03020000000000E1002000EE
:100ED00001007800C2020200000000008100E8006A
:100EE000811F78002322AF00FEFF37002011880009
:100EF000CF007800500120000008E600F4FF370022
:100F00008E07040000000000A0508000142AEC00AE
:100F1000162AEC002607040000000000162AEF0045
:100F2000B4508000032020000418E10012003400B7
:100F300060C2A9006002AE000200370068C2BF00B4
:100F4000FCFF370068E2EF006002AE00FEFF3700F2
:100F5000451380002322AF00FEFF37002402F80073
:100F6000E5FF9F002402F9002562EF00162AEC003D
:100F7000900704000000000001002000010078003C
:100F8000E6020200000000008100E800811F7800F6
:100F90002322AF00FEFF370020118800CF00780029
:100FA000100120000008E600F4FF3700B050800078
:100FB000040020000A030200000000002322AF000A
:100FC000FEFF370004022000241188002322AF0016
:100FD000FEFF3700D4002000241188002322AF0038
:100FE000FEFF3700A4002000241188000040FE000E
:020000040002F8
:08AFF800E08200007F3F000031
:00000001FF
;PIC24FJ128GA006
;CRC=0F16  CREATED="30-май-13 16:17"
